{
    "contractName": "Demonzv2",
    "abi": [
        {
            "inputs": [],
            "stateMutability": "nonpayable",
            "type": "constructor"
        },
        {
            "anonymous": false,
            "inputs": [
                {
                    "indexed": true,
                    "internalType": "address",
                    "name": "owner",
                    "type": "address"
                },
                {
                    "indexed": true,
                    "internalType": "address",
                    "name": "approved",
                    "type": "address"
                },
                {
                    "indexed": true,
                    "internalType": "uint256",
                    "name": "tokenId",
                    "type": "uint256"
                }
            ],
            "name": "Approval",
            "type": "event"
        },
        {
            "anonymous": false,
            "inputs": [
                {
                    "indexed": true,
                    "internalType": "address",
                    "name": "owner",
                    "type": "address"
                },
                {
                    "indexed": true,
                    "internalType": "address",
                    "name": "operator",
                    "type": "address"
                },
                {
                    "indexed": false,
                    "internalType": "bool",
                    "name": "approved",
                    "type": "bool"
                }
            ],
            "name": "ApprovalForAll",
            "type": "event"
        },
        {
            "anonymous": false,
            "inputs": [
                {
                    "indexed": true,
                    "internalType": "address",
                    "name": "previousOwner",
                    "type": "address"
                },
                {
                    "indexed": true,
                    "internalType": "address",
                    "name": "newOwner",
                    "type": "address"
                }
            ],
            "name": "OwnershipTransferred",
            "type": "event"
        },
        {
            "anonymous": false,
            "inputs": [
                {
                    "indexed": true,
                    "internalType": "address",
                    "name": "from",
                    "type": "address"
                },
                {
                    "indexed": true,
                    "internalType": "address",
                    "name": "to",
                    "type": "address"
                },
                {
                    "indexed": true,
                    "internalType": "uint256",
                    "name": "tokenId",
                    "type": "uint256"
                }
            ],
            "name": "Transfer",
            "type": "event"
        },
        {
            "inputs": [],
            "name": "ALLOW_MINTING",
            "outputs": [
                {
                    "internalType": "bool",
                    "name": "",
                    "type": "bool"
                }
            ],
            "stateMutability": "view",
            "type": "function"
        },
        {
            "inputs": [],
            "name": "BEGINNING_URI",
            "outputs": [
                {
                    "internalType": "string",
                    "name": "",
                    "type": "string"
                }
            ],
            "stateMutability": "view",
            "type": "function"
        },
        {
            "inputs": [],
            "name": "ENDING_URI",
            "outputs": [
                {
                    "internalType": "string",
                    "name": "",
                    "type": "string"
                }
            ],
            "stateMutability": "view",
            "type": "function"
        },
        {
            "inputs": [],
            "name": "MAX_PER_TX",
            "outputs": [
                {
                    "internalType": "uint256",
                    "name": "",
                    "type": "uint256"
                }
            ],
            "stateMutability": "view",
            "type": "function"
        },
        {
            "inputs": [],
            "name": "MAX_PER_WALLET",
            "outputs": [
                {
                    "internalType": "uint256",
                    "name": "",
                    "type": "uint256"
                }
            ],
            "stateMutability": "view",
            "type": "function"
        },
        {
            "inputs": [],
            "name": "MAX_TOKENS",
            "outputs": [
                {
                    "internalType": "uint256",
                    "name": "",
                    "type": "uint256"
                }
            ],
            "stateMutability": "view",
            "type": "function"
        },
        {
            "inputs": [],
            "name": "PRICE",
            "outputs": [
                {
                    "internalType": "uint256",
                    "name": "",
                    "type": "uint256"
                }
            ],
            "stateMutability": "view",
            "type": "function"
        },
        {
            "inputs": [
                {
                    "internalType": "address",
                    "name": "to",
                    "type": "address"
                },
                {
                    "internalType": "uint256",
                    "name": "tokenId",
                    "type": "uint256"
                }
            ],
            "name": "approve",
            "outputs": [],
            "stateMutability": "nonpayable",
            "type": "function"
        },
        {
            "inputs": [
                {
                    "internalType": "address",
                    "name": "owner",
                    "type": "address"
                }
            ],
            "name": "balanceOf",
            "outputs": [
                {
                    "internalType": "uint256",
                    "name": "",
                    "type": "uint256"
                }
            ],
            "stateMutability": "view",
            "type": "function"
        },
        {
            "inputs": [
                {
                    "internalType": "uint256[]",
                    "name": "_ids",
                    "type": "uint256[]"
                }
            ],
            "name": "burnV1",
            "outputs": [],
            "stateMutability": "payable",
            "type": "function"
        },
        {
            "inputs": [
                {
                    "internalType": "uint256",
                    "name": "tokenId",
                    "type": "uint256"
                }
            ],
            "name": "getApproved",
            "outputs": [
                {
                    "internalType": "address",
                    "name": "",
                    "type": "address"
                }
            ],
            "stateMutability": "view",
            "type": "function"
        },
        {
            "inputs": [
                {
                    "internalType": "address",
                    "name": "owner",
                    "type": "address"
                },
                {
                    "internalType": "address",
                    "name": "operator",
                    "type": "address"
                }
            ],
            "name": "isApprovedForAll",
            "outputs": [
                {
                    "internalType": "bool",
                    "name": "",
                    "type": "bool"
                }
            ],
            "stateMutability": "view",
            "type": "function"
        },
        {
            "inputs": [
                {
                    "internalType": "uint256",
                    "name": "_amount",
                    "type": "uint256"
                }
            ],
            "name": "mintToken",
            "outputs": [],
            "stateMutability": "payable",
            "type": "function"
        },
        {
            "inputs": [],
            "name": "name",
            "outputs": [
                {
                    "internalType": "string",
                    "name": "",
                    "type": "string"
                }
            ],
            "stateMutability": "view",
            "type": "function"
        },
        {
            "inputs": [],
            "name": "owner",
            "outputs": [
                {
                    "internalType": "address",
                    "name": "",
                    "type": "address"
                }
            ],
            "stateMutability": "view",
            "type": "function"
        },
        {
            "inputs": [
                {
                    "internalType": "uint256",
                    "name": "tokenId",
                    "type": "uint256"
                }
            ],
            "name": "ownerOf",
            "outputs": [
                {
                    "internalType": "address",
                    "name": "",
                    "type": "address"
                }
            ],
            "stateMutability": "view",
            "type": "function"
        },
        {
            "inputs": [],
            "name": "renounceOwnership",
            "outputs": [],
            "stateMutability": "nonpayable",
            "type": "function"
        },
        {
            "inputs": [
                {
                    "internalType": "address",
                    "name": "from",
                    "type": "address"
                },
                {
                    "internalType": "address",
                    "name": "to",
                    "type": "address"
                },
                {
                    "internalType": "uint256",
                    "name": "tokenId",
                    "type": "uint256"
                }
            ],
            "name": "safeTransferFrom",
            "outputs": [],
            "stateMutability": "nonpayable",
            "type": "function"
        },
        {
            "inputs": [
                {
                    "internalType": "address",
                    "name": "from",
                    "type": "address"
                },
                {
                    "internalType": "address",
                    "name": "to",
                    "type": "address"
                },
                {
                    "internalType": "uint256",
                    "name": "tokenId",
                    "type": "uint256"
                },
                {
                    "internalType": "bytes",
                    "name": "_data",
                    "type": "bytes"
                }
            ],
            "name": "safeTransferFrom",
            "outputs": [],
            "stateMutability": "nonpayable",
            "type": "function"
        },
        {
            "inputs": [
                {
                    "internalType": "address",
                    "name": "operator",
                    "type": "address"
                },
                {
                    "internalType": "bool",
                    "name": "approved",
                    "type": "bool"
                }
            ],
            "name": "setApprovalForAll",
            "outputs": [],
            "stateMutability": "nonpayable",
            "type": "function"
        },
        {
            "inputs": [
                {
                    "internalType": "string",
                    "name": "_new_uri",
                    "type": "string"
                }
            ],
            "name": "setBeginningURI",
            "outputs": [],
            "stateMutability": "nonpayable",
            "type": "function"
        },
        {
            "inputs": [
                {
                    "internalType": "string",
                    "name": "_new_uri",
                    "type": "string"
                }
            ],
            "name": "setEndingURI",
            "outputs": [],
            "stateMutability": "nonpayable",
            "type": "function"
        },
        {
            "inputs": [
                {
                    "internalType": "bytes4",
                    "name": "interfaceId",
                    "type": "bytes4"
                }
            ],
            "name": "supportsInterface",
            "outputs": [
                {
                    "internalType": "bool",
                    "name": "",
                    "type": "bool"
                }
            ],
            "stateMutability": "view",
            "type": "function"
        },
        {
            "inputs": [],
            "name": "symbol",
            "outputs": [
                {
                    "internalType": "string",
                    "name": "",
                    "type": "string"
                }
            ],
            "stateMutability": "view",
            "type": "function"
        },
        {
            "inputs": [],
            "name": "toggleMinting",
            "outputs": [],
            "stateMutability": "nonpayable",
            "type": "function"
        },
        {
            "inputs": [
                {
                    "internalType": "uint256",
                    "name": "index",
                    "type": "uint256"
                }
            ],
            "name": "tokenByIndex",
            "outputs": [
                {
                    "internalType": "uint256",
                    "name": "",
                    "type": "uint256"
                }
            ],
            "stateMutability": "view",
            "type": "function"
        },
        {
            "inputs": [
                {
                    "internalType": "address",
                    "name": "owner",
                    "type": "address"
                },
                {
                    "internalType": "uint256",
                    "name": "index",
                    "type": "uint256"
                }
            ],
            "name": "tokenOfOwnerByIndex",
            "outputs": [
                {
                    "internalType": "uint256",
                    "name": "",
                    "type": "uint256"
                }
            ],
            "stateMutability": "view",
            "type": "function"
        },
        {
            "inputs": [
                {
                    "internalType": "uint256",
                    "name": "tokenId",
                    "type": "uint256"
                }
            ],
            "name": "tokenURI",
            "outputs": [
                {
                    "internalType": "string",
                    "name": "",
                    "type": "string"
                }
            ],
            "stateMutability": "view",
            "type": "function"
        },
        {
            "inputs": [],
            "name": "totalSupply",
            "outputs": [
                {
                    "internalType": "uint256",
                    "name": "",
                    "type": "uint256"
                }
            ],
            "stateMutability": "view",
            "type": "function"
        },
        {
            "inputs": [
                {
                    "internalType": "address",
                    "name": "from",
                    "type": "address"
                },
                {
                    "internalType": "address",
                    "name": "to",
                    "type": "address"
                },
                {
                    "internalType": "uint256",
                    "name": "tokenId",
                    "type": "uint256"
                }
            ],
            "name": "transferFrom",
            "outputs": [],
            "stateMutability": "nonpayable",
            "type": "function"
        },
        {
            "inputs": [
                {
                    "internalType": "address",
                    "name": "newOwner",
                    "type": "address"
                }
            ],
            "name": "transferOwnership",
            "outputs": [],
            "stateMutability": "nonpayable",
            "type": "function"
        },
        {
            "inputs": [],
            "name": "withdraw",
            "outputs": [],
            "stateMutability": "nonpayable",
            "type": "function"
        }
    ],
    "bytecode": "613a98600b556014600c556032600d5566d529ae9e860000600e5560a06040819052600060808190526200003691600f9162000155565b50604080516020810191829052600090819052620000579160109162000155565b506011805460ff191690553480156200006f57600080fd5b50604080518082018252600e81526d21b93cb83a37a232b6b7b73d2b1960911b6020808301918252835180850190945260088452672222a6a7a72d3b1960c11b908401528151919291620000c69160009162000155565b508051620000dc90600190602084019062000155565b505050620000f9620000f3620000ff60201b60201c565b62000103565b62000238565b3390565b600a80546001600160a01b038381166001600160a01b0319831681179093556040519116919082907f8be0079c531659141344cd1fd0a4f28419497f9722a3daafe3b4186f6b6457e090600090a35050565b8280546200016390620001fb565b90600052602060002090601f016020900481019282620001875760008555620001d2565b82601f10620001a257805160ff1916838001178555620001d2565b82800160010185558215620001d2579182015b82811115620001d2578251825591602001919060010190620001b5565b50620001e0929150620001e4565b5090565b5b80821115620001e05760008155600101620001e5565b600181811c908216806200021057607f821691505b602082108114156200023257634e487b7160e01b600052602260045260246000fd5b50919050565b6124d180620002486000396000f3fe6080604052600436106101e35760003560e01c806370a0823111610102578063addd60a411610095578063e985e9c511610064578063e985e9c514610524578063f2fde38b1461056d578063f43a22dc1461058d578063f47c84c5146105a357600080fd5b8063addd60a4146104b7578063b88d4fde146104d1578063c634d032146104f1578063c87b56dd1461050457600080fd5b80638d859f3e116100d15780638d859f3e1461044e5780638da5cb5b1461046457806395d89b4114610482578063a22cb4651461049757600080fd5b806370a08231146103f1578063715018a61461041157806374e5ec02146104265780637d55094d1461043957600080fd5b80632f745c591161017a578063544015fe11610149578063544015fe146103875780635701fc0b1461039c5780635cfdf643146103bc5780636352211e146103d157600080fd5b80632f745c59146103125780633ccfd60b1461033257806342842e0e146103475780634f6ccce71461036757600080fd5b80630f2cdd6c116101b65780630f2cdd6c1461029957806318160ddd146102bd57806323b872dd146102d2578063242877c5146102f257600080fd5b806301ffc9a7146101e857806306fdde031461021d578063081812fc1461023f578063095ea7b314610277575b600080fd5b3480156101f457600080fd5b50610208610203366004612023565b6105b9565b60405190151581526020015b60405180910390f35b34801561022957600080fd5b506102326105e4565b60405161021491906121ed565b34801561024b57600080fd5b5061025f61025a3660046120a1565b610676565b6040516001600160a01b039091168152602001610214565b34801561028357600080fd5b50610297610292366004611f52565b610710565b005b3480156102a557600080fd5b506102af600d5481565b604051908152602001610214565b3480156102c957600080fd5b506008546102af565b3480156102de57600080fd5b506102976102ed366004611e64565b610826565b3480156102fe57600080fd5b5061029761030d36600461205b565b610857565b34801561031e57600080fd5b506102af61032d366004611f52565b610898565b34801561033e57600080fd5b5061029761092e565b34801561035357600080fd5b50610297610362366004611e64565b610987565b34801561037357600080fd5b506102af6103823660046120a1565b6109a2565b34801561039357600080fd5b50610232610a43565b3480156103a857600080fd5b506102976103b736600461205b565b610ad1565b3480156103c857600080fd5b50610232610b0e565b3480156103dd57600080fd5b5061025f6103ec3660046120a1565b610b1b565b3480156103fd57600080fd5b506102af61040c366004611e11565b610b92565b34801561041d57600080fd5b50610297610c19565b610297610434366004611f7b565b610c4f565b34801561044557600080fd5b50610297610e62565b34801561045a57600080fd5b506102af600e5481565b34801561047057600080fd5b50600a546001600160a01b031661025f565b34801561048e57600080fd5b50610232610ea0565b3480156104a357600080fd5b506102976104b2366004611f18565b610eaf565b3480156104c357600080fd5b506011546102089060ff1681565b3480156104dd57600080fd5b506102976104ec366004611e9f565b610f74565b6102976104ff3660046120a1565b610fac565b34801561051057600080fd5b5061023261051f3660046120a1565b611175565b34801561053057600080fd5b5061020861053f366004611e32565b6001600160a01b03918216600090815260056020908152604080832093909416825291909152205460ff1690565b34801561057957600080fd5b50610297610588366004611e11565b6111ac565b34801561059957600080fd5b506102af600c5481565b3480156105af57600080fd5b506102af600b5481565b60006001600160e01b0319821663780e9d6360e01b14806105de57506105de82611244565b92915050565b6060600080546105f3906123d9565b80601f016020809104026020016040519081016040528092919081815260200182805461061f906123d9565b801561066c5780601f106106415761010080835404028352916020019161066c565b820191906000526020600020905b81548152906001019060200180831161064f57829003601f168201915b5050505050905090565b6000818152600260205260408120546001600160a01b03166106f45760405162461bcd60e51b815260206004820152602c60248201527f4552433732313a20617070726f76656420717565727920666f72206e6f6e657860448201526b34b9ba32b73a103a37b5b2b760a11b60648201526084015b60405180910390fd5b506000908152600460205260409020546001600160a01b031690565b600061071b82610b1b565b9050806001600160a01b0316836001600160a01b031614156107895760405162461bcd60e51b815260206004820152602160248201527f4552433732313a20617070726f76616c20746f2063757272656e74206f776e656044820152603960f91b60648201526084016106eb565b336001600160a01b03821614806107a557506107a5813361053f565b6108175760405162461bcd60e51b815260206004820152603860248201527f4552433732313a20617070726f76652063616c6c6572206973206e6f74206f7760448201527f6e6572206e6f7220617070726f76656420666f7220616c6c000000000000000060648201526084016106eb565b6108218383611294565b505050565b6108303382611302565b61084c5760405162461bcd60e51b81526004016106eb906122c9565b6108218383836113f9565b600a546001600160a01b031633146108815760405162461bcd60e51b81526004016106eb90612252565b8051610894906010906020840190611d04565b5050565b60006108a383610b92565b82106109055760405162461bcd60e51b815260206004820152602b60248201527f455243373231456e756d657261626c653a206f776e657220696e646578206f7560448201526a74206f6620626f756e647360a81b60648201526084016106eb565b506001600160a01b03919091166000908152600660209081526040808320938352929052205490565b600a546001600160a01b031633146109585760405162461bcd60e51b81526004016106eb90612252565b60405133904780156108fc02916000818181858888f19350505050158015610984573d6000803e3d6000fd5b50565b61082183838360405180602001604052806000815250610f74565b60006109ad60085490565b8210610a105760405162461bcd60e51b815260206004820152602c60248201527f455243373231456e756d657261626c653a20676c6f62616c20696e646578206f60448201526b7574206f6620626f756e647360a01b60648201526084016106eb565b60088281548110610a3157634e487b7160e01b600052603260045260246000fd5b90600052602060002001549050919050565b60108054610a50906123d9565b80601f0160208091040260200160405190810160405280929190818152602001828054610a7c906123d9565b8015610ac95780601f10610a9e57610100808354040283529160200191610ac9565b820191906000526020600020905b815481529060010190602001808311610aac57829003601f168201915b505050505081565b600a546001600160a01b03163314610afb5760405162461bcd60e51b81526004016106eb90612252565b805161089490600f906020840190611d04565b600f8054610a50906123d9565b6000818152600260205260408120546001600160a01b0316806105de5760405162461bcd60e51b815260206004820152602960248201527f4552433732313a206f776e657220717565727920666f72206e6f6e657869737460448201526832b73a103a37b5b2b760b91b60648201526084016106eb565b60006001600160a01b038216610bfd5760405162461bcd60e51b815260206004820152602a60248201527f4552433732313a2062616c616e636520717565727920666f7220746865207a65604482015269726f206164647265737360b01b60648201526084016106eb565b506001600160a01b031660009081526003602052604090205490565b600a546001600160a01b03163314610c435760405162461bcd60e51b81526004016106eb90612252565b610c4d60006115a4565b565b8051600314610c995760405162461bcd60e51b8152602060048201526016602482015275596f752073686f756c64206275726e206f6e6c79203360501b60448201526064016106eb565b60115460ff16610ce75760405162461bcd60e51b8152602060048201526019602482015278135a5b9d1a5b99c81a185cc81b9bdd08189959dd5b881e595d603a1b60448201526064016106eb565b600b548151600854610cf9919061234b565b1115610d475760405162461bcd60e51b815260206004820152601c60248201527f4e6f7420656e6f756768204e465473206c65667420746f206d696e740000000060448201526064016106eb565b600d548151610d5533610b92565b610d5f919061234b565b1115610d7d5760405162461bcd60e51b81526004016106eb90612287565b60005b8151811015610e4f57336001600160a01b0316610dc3838381518110610db657634e487b7160e01b600052603260045260246000fd5b6020026020010151610b1b565b6001600160a01b031614610e0f5760405162461bcd60e51b815260206004820152601360248201527229b2b73232b91034b9903737ba1037bbb732b960691b60448201526064016106eb565b610e3f828281518110610e3257634e487b7160e01b600052603260045260246000fd5b60200260200101516115f6565b610e4881612414565b9050610d80565b5061098433610e5d60085490565b61169d565b600a546001600160a01b03163314610e8c5760405162461bcd60e51b81526004016106eb90612252565b6011805460ff19811660ff90911615179055565b6060600180546105f3906123d9565b6001600160a01b038216331415610f085760405162461bcd60e51b815260206004820152601960248201527f4552433732313a20617070726f766520746f2063616c6c65720000000000000060448201526064016106eb565b3360008181526005602090815260408083206001600160a01b03871680855290835292819020805460ff191686151590811790915590519081529192917f17307eab39ab6107e8899845ad3d59bd9653f200f220920489ca2b5937696c31910160405180910390a35050565b610f7e3383611302565b610f9a5760405162461bcd60e51b81526004016106eb906122c9565b610fa6848484846116b7565b50505050565b60115460ff16610ffa5760405162461bcd60e51b8152602060048201526019602482015278135a5b9d1a5b99c81a185cc81b9bdd08189959dd5b881e595d603a1b60448201526064016106eb565b600e546110079082612377565b34146110555760405162461bcd60e51b815260206004820152601c60248201527f496e636f727265637420616d6f756e74206f66204554482073656e740000000060448201526064016106eb565b600c548111156110b35760405162461bcd60e51b815260206004820152602360248201527f546f6f206d616e7920746f6b656e73207175657269656420666f72206d696e74604482015262696e6760e81b60648201526084016106eb565b600b54816110c060085490565b6110ca919061234b565b11156111185760405162461bcd60e51b815260206004820152601c60248201527f4e6f7420656e6f756768204e465473206c65667420746f206d696e740000000060448201526064016106eb565b600d548161112533610b92565b61112f919061234b565b111561114d5760405162461bcd60e51b81526004016106eb90612287565b60005b818110156108945761116533610e5d60085490565b61116e81612414565b9050611150565b6060600f611182836116ea565b60106040516020016111969392919061217d565b6040516020818303038152906040529050919050565b600a546001600160a01b031633146111d65760405162461bcd60e51b81526004016106eb90612252565b6001600160a01b03811661123b5760405162461bcd60e51b815260206004820152602660248201527f4f776e61626c653a206e6577206f776e657220697320746865207a65726f206160448201526564647265737360d01b60648201526084016106eb565b610984816115a4565b60006001600160e01b031982166380ac58cd60e01b148061127557506001600160e01b03198216635b5e139f60e01b145b806105de57506301ffc9a760e01b6001600160e01b03198316146105de565b600081815260046020526040902080546001600160a01b0319166001600160a01b03841690811790915581906112c982610b1b565b6001600160a01b03167f8c5be1e5ebec7d5bd14f71427d1e84f3dd0314c0f7b2291e5b200ac8c7c3b92560405160405180910390a45050565b6000818152600260205260408120546001600160a01b031661137b5760405162461bcd60e51b815260206004820152602c60248201527f4552433732313a206f70657261746f7220717565727920666f72206e6f6e657860448201526b34b9ba32b73a103a37b5b2b760a11b60648201526084016106eb565b600061138683610b1b565b9050806001600160a01b0316846001600160a01b031614806113c15750836001600160a01b03166113b684610676565b6001600160a01b0316145b806113f157506001600160a01b0380821660009081526005602090815260408083209388168352929052205460ff165b949350505050565b826001600160a01b031661140c82610b1b565b6001600160a01b0316146114745760405162461bcd60e51b815260206004820152602960248201527f4552433732313a207472616e73666572206f6620746f6b656e2074686174206960448201526839903737ba1037bbb760b91b60648201526084016106eb565b6001600160a01b0382166114d65760405162461bcd60e51b8152602060048201526024808201527f4552433732313a207472616e7366657220746f20746865207a65726f206164646044820152637265737360e01b60648201526084016106eb565b6114e1838383611804565b6114ec600082611294565b6001600160a01b0383166000908152600360205260408120805460019290611515908490612396565b90915550506001600160a01b038216600090815260036020526040812080546001929061154390849061234b565b909155505060008181526002602052604080822080546001600160a01b0319166001600160a01b0386811691821790925591518493918716917fddf252ad1be2c89b69c2b068fc378daa952ba7f163c4a11628f55a4df523b3ef91a4505050565b600a80546001600160a01b038381166001600160a01b0319831681179093556040519116919082907f8be0079c531659141344cd1fd0a4f28419497f9722a3daafe3b4186f6b6457e090600090a35050565b600061160182610b1b565b905061160f81600084611804565b61161a600083611294565b6001600160a01b0381166000908152600360205260408120805460019290611643908490612396565b909155505060008281526002602052604080822080546001600160a01b0319169055518391906001600160a01b038416907fddf252ad1be2c89b69c2b068fc378daa952ba7f163c4a11628f55a4df523b3ef908390a45050565b6108948282604051806020016040528060008152506118bc565b6116c28484846113f9565b6116ce848484846118ef565b610fa65760405162461bcd60e51b81526004016106eb90612200565b60608161170e5750506040805180820190915260018152600360fc1b602082015290565b8160005b8115611738578061172281612414565b91506117319050600a83612363565b9150611712565b60008167ffffffffffffffff81111561176157634e487b7160e01b600052604160045260246000fd5b6040519080825280601f01601f19166020018201604052801561178b576020820181803683370190505b5090505b84156113f1576117a0600183612396565b91506117ad600a8661242f565b6117b890603061234b565b60f81b8183815181106117db57634e487b7160e01b600052603260045260246000fd5b60200101906001600160f81b031916908160001a9053506117fd600a86612363565b945061178f565b6001600160a01b03831661185f5761185a81600880546000838152600960205260408120829055600182018355919091527ff3f7a9fe364faab93b216da50a3214154f22a0a2b415b23a84c8169e8b636ee30155565b611882565b816001600160a01b0316836001600160a01b0316146118825761188283826119fc565b6001600160a01b0382166118995761082181611a99565b826001600160a01b0316826001600160a01b031614610821576108218282611b72565b6118c68383611bb6565b6118d360008484846118ef565b6108215760405162461bcd60e51b81526004016106eb90612200565b60006001600160a01b0384163b156119f157604051630a85bd0160e11b81526001600160a01b0385169063150b7a02906119339033908990889088906004016121b0565b602060405180830381600087803b15801561194d57600080fd5b505af192505050801561197d575060408051601f3d908101601f1916820190925261197a9181019061203f565b60015b6119d7573d8080156119ab576040519150601f19603f3d011682016040523d82523d6000602084013e6119b0565b606091505b5080516119cf5760405162461bcd60e51b81526004016106eb90612200565b805181602001fd5b6001600160e01b031916630a85bd0160e11b1490506113f1565b506001949350505050565b60006001611a0984610b92565b611a139190612396565b600083815260076020526040902054909150808214611a66576001600160a01b03841660009081526006602090815260408083208584528252808320548484528184208190558352600790915290208190555b5060009182526007602090815260408084208490556001600160a01b039094168352600681528383209183525290812055565b600854600090611aab90600190612396565b60008381526009602052604081205460088054939450909284908110611ae157634e487b7160e01b600052603260045260246000fd5b906000526020600020015490508060088381548110611b1057634e487b7160e01b600052603260045260246000fd5b6000918252602080832090910192909255828152600990915260408082208490558582528120556008805480611b5657634e487b7160e01b600052603160045260246000fd5b6001900381819060005260206000200160009055905550505050565b6000611b7d83610b92565b6001600160a01b039093166000908152600660209081526040808320868452825280832085905593825260079052919091209190915550565b6001600160a01b038216611c0c5760405162461bcd60e51b815260206004820181905260248201527f4552433732313a206d696e7420746f20746865207a65726f206164647265737360448201526064016106eb565b6000818152600260205260409020546001600160a01b031615611c715760405162461bcd60e51b815260206004820152601c60248201527f4552433732313a20746f6b656e20616c7265616479206d696e7465640000000060448201526064016106eb565b611c7d60008383611804565b6001600160a01b0382166000908152600360205260408120805460019290611ca690849061234b565b909155505060008181526002602052604080822080546001600160a01b0319166001600160a01b03861690811790915590518392907fddf252ad1be2c89b69c2b068fc378daa952ba7f163c4a11628f55a4df523b3ef908290a45050565b828054611d10906123d9565b90600052602060002090601f016020900481019282611d325760008555611d78565b82601f10611d4b57805160ff1916838001178555611d78565b82800160010185558215611d78579182015b82811115611d78578251825591602001919060010190611d5d565b50611d84929150611d88565b5090565b5b80821115611d845760008155600101611d89565b600067ffffffffffffffff831115611db757611db761246f565b611dca601f8401601f191660200161231a565b9050828152838383011115611dde57600080fd5b828260208301376000602084830101529392505050565b80356001600160a01b0381168114611e0c57600080fd5b919050565b600060208284031215611e22578081fd5b611e2b82611df5565b9392505050565b60008060408385031215611e44578081fd5b611e4d83611df5565b9150611e5b60208401611df5565b90509250929050565b600080600060608486031215611e78578081fd5b611e8184611df5565b9250611e8f60208501611df5565b9150604084013590509250925092565b60008060008060808587031215611eb4578081fd5b611ebd85611df5565b9350611ecb60208601611df5565b925060408501359150606085013567ffffffffffffffff811115611eed578182fd5b8501601f81018713611efd578182fd5b611f0c87823560208401611d9d565b91505092959194509250565b60008060408385031215611f2a578182fd5b611f3383611df5565b915060208301358015158114611f47578182fd5b809150509250929050565b60008060408385031215611f64578182fd5b611f6d83611df5565b946020939093013593505050565b60006020808385031215611f8d578182fd5b823567ffffffffffffffff80821115611fa4578384fd5b818501915085601f830112611fb7578384fd5b813581811115611fc957611fc961246f565b8060051b9150611fda84830161231a565b8181528481019084860184860187018a1015611ff4578788fd5b8795505b83861015612016578035835260019590950194918601918601611ff8565b5098975050505050505050565b600060208284031215612034578081fd5b8135611e2b81612485565b600060208284031215612050578081fd5b8151611e2b81612485565b60006020828403121561206c578081fd5b813567ffffffffffffffff811115612082578182fd5b8201601f81018413612092578182fd5b6113f184823560208401611d9d565b6000602082840312156120b2578081fd5b5035919050565b600081518084526120d18160208601602086016123ad565b601f01601f19169290920160200192915050565b8054600090600181811c90808316806120ff57607f831692505b602080841082141561211f57634e487b7160e01b86526022600452602486fd5b818015612133576001811461214457612171565b60ff19861689528489019650612171565b60008881526020902060005b868110156121695781548b820152908501908301612150565b505084890196505b50505050505092915050565b600061218982866120e5565b84516121998183602089016123ad565b6121a5818301866120e5565b979650505050505050565b6001600160a01b03858116825284166020820152604081018390526080606082018190526000906121e3908301846120b9565b9695505050505050565b602081526000611e2b60208301846120b9565b60208082526032908201527f4552433732313a207472616e7366657220746f206e6f6e20455243373231526560408201527131b2b4bb32b91034b6b83632b6b2b73a32b960711b606082015260800190565b6020808252818101527f4f776e61626c653a2063616c6c6572206973206e6f7420746865206f776e6572604082015260600190565b60208082526022908201527f457863656564732077616c6c6574206d617820616c6c6f7765642062616c616e604082015261636560f01b606082015260800190565b60208082526031908201527f4552433732313a207472616e736665722063616c6c6572206973206e6f74206f6040820152701ddb995c881b9bdc88185c1c1c9bdd9959607a1b606082015260800190565b604051601f8201601f1916810167ffffffffffffffff811182821017156123435761234361246f565b604052919050565b6000821982111561235e5761235e612443565b500190565b60008261237257612372612459565b500490565b600081600019048311821515161561239157612391612443565b500290565b6000828210156123a8576123a8612443565b500390565b60005b838110156123c85781810151838201526020016123b0565b83811115610fa65750506000910152565b600181811c908216806123ed57607f821691505b6020821081141561240e57634e487b7160e01b600052602260045260246000fd5b50919050565b600060001982141561242857612428612443565b5060010190565b60008261243e5761243e612459565b500690565b634e487b7160e01b600052601160045260246000fd5b634e487b7160e01b600052601260045260246000fd5b634e487b7160e01b600052604160045260246000fd5b6001600160e01b03198116811461098457600080fdfea2646970667358221220ac96efe9888c17af298e334d14f7bad3d4a8a8a2ae45170fd82ae87778c303a064736f6c63430008040033",
    "sourcePath": "c:/Users/samfl/OneDrive/Desktop/demonzv2/contracts/Demonzv2.sol",
    "compiler": {
        "name": "solc",
        "version": "0.8.4+commit.c7e474f2"
    },
    "functionHashes": {
        "ALLOW_MINTING()": "addd60a4",
        "BEGINNING_URI()": "5cfdf643",
        "ENDING_URI()": "544015fe",
        "MAX_PER_TX()": "f43a22dc",
        "MAX_PER_WALLET()": "0f2cdd6c",
        "MAX_TOKENS()": "f47c84c5",
        "PRICE()": "8d859f3e",
        "approve(address,uint256)": "095ea7b3",
        "balanceOf(address)": "70a08231",
        "burnV1(uint256[])": "74e5ec02",
        "getApproved(uint256)": "081812fc",
        "isApprovedForAll(address,address)": "e985e9c5",
        "mintToken(uint256)": "c634d032",
        "name()": "06fdde03",
        "owner()": "8da5cb5b",
        "ownerOf(uint256)": "6352211e",
        "renounceOwnership()": "715018a6",
        "safeTransferFrom(address,address,uint256)": "42842e0e",
        "safeTransferFrom(address,address,uint256,bytes)": "b88d4fde",
        "setApprovalForAll(address,bool)": "a22cb465",
        "setBeginningURI(string)": "5701fc0b",
        "setEndingURI(string)": "242877c5",
        "supportsInterface(bytes4)": "01ffc9a7",
        "symbol()": "95d89b41",
        "toggleMinting()": "7d55094d",
        "tokenByIndex(uint256)": "4f6ccce7",
        "tokenOfOwnerByIndex(address,uint256)": "2f745c59",
        "tokenURI(uint256)": "c87b56dd",
        "totalSupply()": "18160ddd",
        "transferFrom(address,address,uint256)": "23b872dd",
        "transferOwnership(address)": "f2fde38b",
        "withdraw()": "3ccfd60b"
    },
    "gasEstimates": {
        "creation": {
            "codeDepositCost": "1885000",
            "executionCost": "infinite",
            "totalCost": "infinite"
        },
        "external": {
            "ALLOW_MINTING()": "1044",
            "BEGINNING_URI()": "infinite",
            "ENDING_URI()": "infinite",
            "MAX_PER_TX()": "1083",
            "MAX_PER_WALLET()": "1041",
            "MAX_TOKENS()": "1105",
            "PRICE()": "1040",
            "approve(address,uint256)": "infinite",
            "balanceOf(address)": "1335",
            "burnV1(uint256[])": "infinite",
            "getApproved(uint256)": "2183",
            "isApprovedForAll(address,address)": "infinite",
            "mintToken(uint256)": "infinite",
            "name()": "infinite",
            "owner()": "1098",
            "ownerOf(uint256)": "1367",
            "renounceOwnership()": "23485",
            "safeTransferFrom(address,address,uint256)": "infinite",
            "safeTransferFrom(address,address,uint256,bytes)": "infinite",
            "setApprovalForAll(address,bool)": "23339",
            "setBeginningURI(string)": "infinite",
            "setEndingURI(string)": "infinite",
            "supportsInterface(bytes4)": "infinite",
            "symbol()": "infinite",
            "toggleMinting()": "21935",
            "tokenByIndex(uint256)": "2927",
            "tokenOfOwnerByIndex(address,uint256)": "2376",
            "tokenURI(uint256)": "infinite",
            "totalSupply()": "1060",
            "transferFrom(address,address,uint256)": "infinite",
            "transferOwnership(address)": "23678",
            "withdraw()": "infinite"
        }
    }
}