{
    "contractName": "ERC721",
    "abi": [
        {
            "inputs": [
                {
                    "internalType": "string",
                    "name": "name_",
                    "type": "string"
                },
                {
                    "internalType": "string",
                    "name": "symbol_",
                    "type": "string"
                }
            ],
            "stateMutability": "nonpayable",
            "type": "constructor"
        },
        {
            "anonymous": false,
            "inputs": [
                {
                    "indexed": true,
                    "internalType": "address",
                    "name": "owner",
                    "type": "address"
                },
                {
                    "indexed": true,
                    "internalType": "address",
                    "name": "approved",
                    "type": "address"
                },
                {
                    "indexed": true,
                    "internalType": "uint256",
                    "name": "tokenId",
                    "type": "uint256"
                }
            ],
            "name": "Approval",
            "type": "event"
        },
        {
            "anonymous": false,
            "inputs": [
                {
                    "indexed": true,
                    "internalType": "address",
                    "name": "owner",
                    "type": "address"
                },
                {
                    "indexed": true,
                    "internalType": "address",
                    "name": "operator",
                    "type": "address"
                },
                {
                    "indexed": false,
                    "internalType": "bool",
                    "name": "approved",
                    "type": "bool"
                }
            ],
            "name": "ApprovalForAll",
            "type": "event"
        },
        {
            "anonymous": false,
            "inputs": [
                {
                    "indexed": true,
                    "internalType": "address",
                    "name": "from",
                    "type": "address"
                },
                {
                    "indexed": true,
                    "internalType": "address",
                    "name": "to",
                    "type": "address"
                },
                {
                    "indexed": true,
                    "internalType": "uint256",
                    "name": "tokenId",
                    "type": "uint256"
                }
            ],
            "name": "Transfer",
            "type": "event"
        },
        {
            "inputs": [
                {
                    "internalType": "address",
                    "name": "to",
                    "type": "address"
                },
                {
                    "internalType": "uint256",
                    "name": "tokenId",
                    "type": "uint256"
                }
            ],
            "name": "approve",
            "outputs": [],
            "stateMutability": "nonpayable",
            "type": "function"
        },
        {
            "inputs": [
                {
                    "internalType": "address",
                    "name": "owner",
                    "type": "address"
                }
            ],
            "name": "balanceOf",
            "outputs": [
                {
                    "internalType": "uint256",
                    "name": "",
                    "type": "uint256"
                }
            ],
            "stateMutability": "view",
            "type": "function"
        },
        {
            "inputs": [
                {
                    "internalType": "uint256",
                    "name": "tokenId",
                    "type": "uint256"
                }
            ],
            "name": "getApproved",
            "outputs": [
                {
                    "internalType": "address",
                    "name": "",
                    "type": "address"
                }
            ],
            "stateMutability": "view",
            "type": "function"
        },
        {
            "inputs": [
                {
                    "internalType": "address",
                    "name": "owner",
                    "type": "address"
                },
                {
                    "internalType": "address",
                    "name": "operator",
                    "type": "address"
                }
            ],
            "name": "isApprovedForAll",
            "outputs": [
                {
                    "internalType": "bool",
                    "name": "",
                    "type": "bool"
                }
            ],
            "stateMutability": "view",
            "type": "function"
        },
        {
            "inputs": [],
            "name": "name",
            "outputs": [
                {
                    "internalType": "string",
                    "name": "",
                    "type": "string"
                }
            ],
            "stateMutability": "view",
            "type": "function"
        },
        {
            "inputs": [
                {
                    "internalType": "uint256",
                    "name": "tokenId",
                    "type": "uint256"
                }
            ],
            "name": "ownerOf",
            "outputs": [
                {
                    "internalType": "address",
                    "name": "",
                    "type": "address"
                }
            ],
            "stateMutability": "view",
            "type": "function"
        },
        {
            "inputs": [
                {
                    "internalType": "address",
                    "name": "from",
                    "type": "address"
                },
                {
                    "internalType": "address",
                    "name": "to",
                    "type": "address"
                },
                {
                    "internalType": "uint256",
                    "name": "tokenId",
                    "type": "uint256"
                }
            ],
            "name": "safeTransferFrom",
            "outputs": [],
            "stateMutability": "nonpayable",
            "type": "function"
        },
        {
            "inputs": [
                {
                    "internalType": "address",
                    "name": "from",
                    "type": "address"
                },
                {
                    "internalType": "address",
                    "name": "to",
                    "type": "address"
                },
                {
                    "internalType": "uint256",
                    "name": "tokenId",
                    "type": "uint256"
                },
                {
                    "internalType": "bytes",
                    "name": "_data",
                    "type": "bytes"
                }
            ],
            "name": "safeTransferFrom",
            "outputs": [],
            "stateMutability": "nonpayable",
            "type": "function"
        },
        {
            "inputs": [
                {
                    "internalType": "address",
                    "name": "operator",
                    "type": "address"
                },
                {
                    "internalType": "bool",
                    "name": "approved",
                    "type": "bool"
                }
            ],
            "name": "setApprovalForAll",
            "outputs": [],
            "stateMutability": "nonpayable",
            "type": "function"
        },
        {
            "inputs": [
                {
                    "internalType": "bytes4",
                    "name": "interfaceId",
                    "type": "bytes4"
                }
            ],
            "name": "supportsInterface",
            "outputs": [
                {
                    "internalType": "bool",
                    "name": "",
                    "type": "bool"
                }
            ],
            "stateMutability": "view",
            "type": "function"
        },
        {
            "inputs": [],
            "name": "symbol",
            "outputs": [
                {
                    "internalType": "string",
                    "name": "",
                    "type": "string"
                }
            ],
            "stateMutability": "view",
            "type": "function"
        },
        {
            "inputs": [
                {
                    "internalType": "uint256",
                    "name": "tokenId",
                    "type": "uint256"
                }
            ],
            "name": "tokenURI",
            "outputs": [
                {
                    "internalType": "string",
                    "name": "",
                    "type": "string"
                }
            ],
            "stateMutability": "view",
            "type": "function"
        },
        {
            "inputs": [
                {
                    "internalType": "address",
                    "name": "from",
                    "type": "address"
                },
                {
                    "internalType": "address",
                    "name": "to",
                    "type": "address"
                },
                {
                    "internalType": "uint256",
                    "name": "tokenId",
                    "type": "uint256"
                }
            ],
            "name": "transferFrom",
            "outputs": [],
            "stateMutability": "nonpayable",
            "type": "function"
        }
    ],
    "bytecode": "60806040523480156200001157600080fd5b50604051620014c7380380620014c78339810160408190526200003491620001c1565b81516200004990600090602085019062000068565b5080516200005f90600190602084019062000068565b5050506200027b565b828054620000769062000228565b90600052602060002090601f0160209004810192826200009a5760008555620000e5565b82601f10620000b557805160ff1916838001178555620000e5565b82800160010185558215620000e5579182015b82811115620000e5578251825591602001919060010190620000c8565b50620000f3929150620000f7565b5090565b5b80821115620000f35760008155600101620000f8565b600082601f8301126200011f578081fd5b81516001600160401b03808211156200013c576200013c62000265565b604051601f8301601f19908116603f0116810190828211818310171562000167576200016762000265565b8160405283815260209250868385880101111562000183578485fd5b8491505b83821015620001a6578582018301518183018401529082019062000187565b83821115620001b757848385830101525b9695505050505050565b60008060408385031215620001d4578182fd5b82516001600160401b0380821115620001eb578384fd5b620001f9868387016200010e565b935060208501519150808211156200020f578283fd5b506200021e858286016200010e565b9150509250929050565b600181811c908216806200023d57607f821691505b602082108114156200025f57634e487b7160e01b600052602260045260246000fd5b50919050565b634e487b7160e01b600052604160045260246000fd5b61123c806200028b6000396000f3fe608060405234801561001057600080fd5b50600436106100cf5760003560e01c80636352211e1161008c578063a22cb46511610066578063a22cb465146101b3578063b88d4fde146101c6578063c87b56dd146101d9578063e985e9c5146101ec57600080fd5b80636352211e1461017757806370a082311461018a57806395d89b41146101ab57600080fd5b806301ffc9a7146100d457806306fdde03146100fc578063081812fc14610111578063095ea7b31461013c57806323b872dd1461015157806342842e0e14610164575b600080fd5b6100e76100e2366004610f34565b610228565b60405190151581526020015b60405180910390f35b61010461027a565b6040516100f3919061101c565b61012461011f366004610f6c565b61030c565b6040516001600160a01b0390911681526020016100f3565b61014f61014a366004610f0b565b6103a6565b005b61014f61015f366004610dc1565b6104bc565b61014f610172366004610dc1565b6104ed565b610124610185366004610f6c565b610508565b61019d610198366004610d75565b61057f565b6040519081526020016100f3565b610104610606565b61014f6101c1366004610ed1565b610615565b61014f6101d4366004610dfc565b6106da565b6101046101e7366004610f6c565b610712565b6100e76101fa366004610d8f565b6001600160a01b03918216600090815260056020908152604080832093909416825291909152205460ff1690565b60006001600160e01b031982166380ac58cd60e01b148061025957506001600160e01b03198216635b5e139f60e01b145b8061027457506301ffc9a760e01b6001600160e01b03198316145b92915050565b60606000805461028990611141565b80601f01602080910402602001604051908101604052809291908181526020018280546102b590611141565b80156103025780601f106102d757610100808354040283529160200191610302565b820191906000526020600020905b8154815290600101906020018083116102e557829003601f168201915b5050505050905090565b6000818152600260205260408120546001600160a01b031661038a5760405162461bcd60e51b815260206004820152602c60248201527f4552433732313a20617070726f76656420717565727920666f72206e6f6e657860448201526b34b9ba32b73a103a37b5b2b760a11b60648201526084015b60405180910390fd5b506000908152600460205260409020546001600160a01b031690565b60006103b182610508565b9050806001600160a01b0316836001600160a01b0316141561041f5760405162461bcd60e51b815260206004820152602160248201527f4552433732313a20617070726f76616c20746f2063757272656e74206f776e656044820152603960f91b6064820152608401610381565b336001600160a01b038216148061043b575061043b81336101fa565b6104ad5760405162461bcd60e51b815260206004820152603860248201527f4552433732313a20617070726f76652063616c6c6572206973206e6f74206f7760448201527f6e6572206e6f7220617070726f76656420666f7220616c6c00000000000000006064820152608401610381565b6104b783836107fa565b505050565b6104c63382610868565b6104e25760405162461bcd60e51b815260040161038190611081565b6104b783838361095f565b6104b7838383604051806020016040528060008152506106da565b6000818152600260205260408120546001600160a01b0316806102745760405162461bcd60e51b815260206004820152602960248201527f4552433732313a206f776e657220717565727920666f72206e6f6e657869737460448201526832b73a103a37b5b2b760b91b6064820152608401610381565b60006001600160a01b0382166105ea5760405162461bcd60e51b815260206004820152602a60248201527f4552433732313a2062616c616e636520717565727920666f7220746865207a65604482015269726f206164647265737360b01b6064820152608401610381565b506001600160a01b031660009081526003602052604090205490565b60606001805461028990611141565b6001600160a01b03821633141561066e5760405162461bcd60e51b815260206004820152601960248201527f4552433732313a20617070726f766520746f2063616c6c6572000000000000006044820152606401610381565b3360008181526005602090815260408083206001600160a01b03871680855290835292819020805460ff191686151590811790915590519081529192917f17307eab39ab6107e8899845ad3d59bd9653f200f220920489ca2b5937696c31910160405180910390a35050565b6106e43383610868565b6107005760405162461bcd60e51b815260040161038190611081565b61070c84848484610aff565b50505050565b6000818152600260205260409020546060906001600160a01b03166107915760405162461bcd60e51b815260206004820152602f60248201527f4552433732314d657461646174613a2055524920717565727920666f72206e6f60448201526e3732bc34b9ba32b73a103a37b5b2b760891b6064820152608401610381565b60006107a860408051602081019091526000815290565b905060008151116107c857604051806020016040528060008152506107f3565b806107d284610b32565b6040516020016107e3929190610fb0565b6040516020818303038152906040525b9392505050565b600081815260046020526040902080546001600160a01b0319166001600160a01b038416908117909155819061082f82610508565b6001600160a01b03167f8c5be1e5ebec7d5bd14f71427d1e84f3dd0314c0f7b2291e5b200ac8c7c3b92560405160405180910390a45050565b6000818152600260205260408120546001600160a01b03166108e15760405162461bcd60e51b815260206004820152602c60248201527f4552433732313a206f70657261746f7220717565727920666f72206e6f6e657860448201526b34b9ba32b73a103a37b5b2b760a11b6064820152608401610381565b60006108ec83610508565b9050806001600160a01b0316846001600160a01b031614806109275750836001600160a01b031661091c8461030c565b6001600160a01b0316145b8061095757506001600160a01b0380821660009081526005602090815260408083209388168352929052205460ff165b949350505050565b826001600160a01b031661097282610508565b6001600160a01b0316146109da5760405162461bcd60e51b815260206004820152602960248201527f4552433732313a207472616e73666572206f6620746f6b656e2074686174206960448201526839903737ba1037bbb760b91b6064820152608401610381565b6001600160a01b038216610a3c5760405162461bcd60e51b8152602060048201526024808201527f4552433732313a207472616e7366657220746f20746865207a65726f206164646044820152637265737360e01b6064820152608401610381565b610a476000826107fa565b6001600160a01b0383166000908152600360205260408120805460019290610a709084906110fe565b90915550506001600160a01b0382166000908152600360205260408120805460019290610a9e9084906110d2565b909155505060008181526002602052604080822080546001600160a01b0319166001600160a01b0386811691821790925591518493918716917fddf252ad1be2c89b69c2b068fc378daa952ba7f163c4a11628f55a4df523b3ef91a4505050565b610b0a84848461095f565b610b1684848484610c4c565b61070c5760405162461bcd60e51b81526004016103819061102f565b606081610b565750506040805180820190915260018152600360fc1b602082015290565b8160005b8115610b805780610b6a8161117c565b9150610b799050600a836110ea565b9150610b5a565b60008167ffffffffffffffff811115610ba957634e487b7160e01b600052604160045260246000fd5b6040519080825280601f01601f191660200182016040528015610bd3576020820181803683370190505b5090505b841561095757610be86001836110fe565b9150610bf5600a86611197565b610c009060306110d2565b60f81b818381518110610c2357634e487b7160e01b600052603260045260246000fd5b60200101906001600160f81b031916908160001a905350610c45600a866110ea565b9450610bd7565b60006001600160a01b0384163b15610d4e57604051630a85bd0160e11b81526001600160a01b0385169063150b7a0290610c90903390899088908890600401610fdf565b602060405180830381600087803b158015610caa57600080fd5b505af1925050508015610cda575060408051601f3d908101601f19168201909252610cd791810190610f50565b60015b610d34573d808015610d08576040519150601f19603f3d011682016040523d82523d6000602084013e610d0d565b606091505b508051610d2c5760405162461bcd60e51b81526004016103819061102f565b805181602001fd5b6001600160e01b031916630a85bd0160e11b149050610957565b506001949350505050565b80356001600160a01b0381168114610d7057600080fd5b919050565b600060208284031215610d86578081fd5b6107f382610d59565b60008060408385031215610da1578081fd5b610daa83610d59565b9150610db860208401610d59565b90509250929050565b600080600060608486031215610dd5578081fd5b610dde84610d59565b9250610dec60208501610d59565b9150604084013590509250925092565b60008060008060808587031215610e11578081fd5b610e1a85610d59565b9350610e2860208601610d59565b925060408501359150606085013567ffffffffffffffff80821115610e4b578283fd5b818701915087601f830112610e5e578283fd5b813581811115610e7057610e706111d7565b604051601f8201601f19908116603f01168101908382118183101715610e9857610e986111d7565b816040528281528a6020848701011115610eb0578586fd5b82602086016020830137918201602001949094529598949750929550505050565b60008060408385031215610ee3578182fd5b610eec83610d59565b915060208301358015158114610f00578182fd5b809150509250929050565b60008060408385031215610f1d578182fd5b610f2683610d59565b946020939093013593505050565b600060208284031215610f45578081fd5b81356107f3816111ed565b600060208284031215610f61578081fd5b81516107f3816111ed565b600060208284031215610f7d578081fd5b5035919050565b60008151808452610f9c816020860160208601611115565b601f01601f19169290920160200192915050565b60008351610fc2818460208801611115565b835190830190610fd6818360208801611115565b01949350505050565b6001600160a01b038581168252841660208201526040810183905260806060820181905260009061101290830184610f84565b9695505050505050565b6020815260006107f36020830184610f84565b60208082526032908201527f4552433732313a207472616e7366657220746f206e6f6e20455243373231526560408201527131b2b4bb32b91034b6b83632b6b2b73a32b960711b606082015260800190565b60208082526031908201527f4552433732313a207472616e736665722063616c6c6572206973206e6f74206f6040820152701ddb995c881b9bdc88185c1c1c9bdd9959607a1b606082015260800190565b600082198211156110e5576110e56111ab565b500190565b6000826110f9576110f96111c1565b500490565b600082821015611110576111106111ab565b500390565b60005b83811015611130578181015183820152602001611118565b8381111561070c5750506000910152565b600181811c9082168061115557607f821691505b6020821081141561117657634e487b7160e01b600052602260045260246000fd5b50919050565b6000600019821415611190576111906111ab565b5060010190565b6000826111a6576111a66111c1565b500690565b634e487b7160e01b600052601160045260246000fd5b634e487b7160e01b600052601260045260246000fd5b634e487b7160e01b600052604160045260246000fd5b6001600160e01b03198116811461120357600080fd5b5056fea2646970667358221220ab67b1d413106b1bab3fa3227eeed1849b6d73ff45c1b0ecbe268a5957b9b0bc64736f6c63430008040033",
    "sourcePath": "c:/Users/samfl/OneDrive/Desktop/demonzv2/contracts/ERC721.sol",
    "compiler": {
        "name": "solc",
        "version": "0.8.4+commit.c7e474f2"
    },
    "functionHashes": {
        "approve(address,uint256)": "095ea7b3",
        "balanceOf(address)": "70a08231",
        "getApproved(uint256)": "081812fc",
        "isApprovedForAll(address,address)": "e985e9c5",
        "name()": "06fdde03",
        "ownerOf(uint256)": "6352211e",
        "safeTransferFrom(address,address,uint256)": "42842e0e",
        "safeTransferFrom(address,address,uint256,bytes)": "b88d4fde",
        "setApprovalForAll(address,bool)": "a22cb465",
        "supportsInterface(bytes4)": "01ffc9a7",
        "symbol()": "95d89b41",
        "tokenURI(uint256)": "c87b56dd",
        "transferFrom(address,address,uint256)": "23b872dd"
    },
    "gasEstimates": {
        "creation": {
            "codeDepositCost": "933600",
            "executionCost": "infinite",
            "totalCost": "infinite"
        },
        "external": {
            "approve(address,uint256)": "infinite",
            "balanceOf(address)": "1334",
            "getApproved(uint256)": "2137",
            "isApprovedForAll(address,address)": "infinite",
            "name()": "infinite",
            "ownerOf(uint256)": "1279",
            "safeTransferFrom(address,address,uint256)": "infinite",
            "safeTransferFrom(address,address,uint256,bytes)": "infinite",
            "setApprovalForAll(address,bool)": "23250",
            "supportsInterface(bytes4)": "511",
            "symbol()": "infinite",
            "tokenURI(uint256)": "infinite",
            "transferFrom(address,address,uint256)": "infinite"
        },
        "internal": {
            "_approve(address,uint256)": "infinite",
            "_baseURI()": "infinite",
            "_beforeTokenTransfer(address,address,uint256)": "infinite",
            "_burn(uint256)": "infinite",
            "_checkOnERC721Received(address,address,uint256,bytes memory)": "infinite",
            "_exists(uint256)": "infinite",
            "_isApprovedOrOwner(address,uint256)": "infinite",
            "_mint(address,uint256)": "infinite",
            "_safeMint(address,uint256)": "infinite",
            "_safeMint(address,uint256,bytes memory)": "infinite",
            "_safeTransfer(address,address,uint256,bytes memory)": "infinite",
            "_transfer(address,address,uint256)": "infinite"
        }
    }
}